:100000000C9438000C9455000C9455000C94550039
:100010000C9455000C9455000C9455000C9455000C
:100020000C9455000C9455000C9455000C945500FC
:100030000C9455000C9455000C9455000C945500EC
:100040000C9455000C9455000C9455000C945500DC
:100050000C9455006200650068006B006E00710032
:100060007400A000A200A400A600A800AA00AC0092
:1000700011241FBECFE5D8E0DEBFCDBF10E0A0E663
:10008000B0E0EAE6F4E002C005900D92A236B107B6
:10009000D9F720E0A2E6B0E001C01D92AF36B2076A
:1000A000E1F70E94C7000C9433020C940000809189
:1000B0006E0090E087309105D0F4FC01E65DFF4FC3
:1000C0000C942D028FE382BB089586E082BB0895D5
:1000D0008BE582BB08958FE482BB089586E682BBE0
:1000E00008958DE682BB08958DE782BB08958FEF5A
:1000F00082BB0895EF92FF920F931F93CF93DF93EC
:1001000080916E008823E1F10F2EF7E6EF2EF0E0EC
:10011000FF2EF02D20E030E00FEF1DE7DDE6C6E614
:100120007FE46BE556E04FE3F70181917F0190E0BA
:100130008730910598F48F5C9F4FFC010C942D0241
:100140004BBB0DC05BBB0BC06BBB09C07BBB07C00F
:10015000CBBB05C0DBBB03C01BBB01C00BBBFFEFB0
:1001600089E698E1F15080409040E1F700C000003E
:100170002F5F3F4F80916E0090E028173907A4F25F
:10018000DF91CF911F910F91FF90EF9008958FEF26
:100190008ABB17BA84BB81BB31E022E8A0E875E0D6
:1001A00060E051E442E4D7E0C0E086B3807186BBF2
:1001B000882359F0309365008FE79AE1B6E08150CB
:1001C0009040B040E1F700C00000809166008930A7
:1001D000E0F01092650080916200811110C025BB93
:1001E000EFE7FFE482E1E150F0408040E1F700C03A
:1001F000000015BA809162008F5F8093620086B321
:10020000807286BB811130936400809165008130DB
:1002100009F012C125BB9FE8BFE5E1E09150B04075
:10022000E040E1F700C0000015BAFFE58EEA9AE071
:10023000F15080409040E1F700C0000086B380712B
:1002400086BB882391F015BACFE386B3807286BB54
:100250008823D9F30E94570080916E00811102C05B
:10026000CBBBF3CF0E947A00F0CF86B3827086BBFF
:10027000882309F4E1C0809166008F5F8093660057
:1002800030936000A2BBBFE3EDE0F3E0B150E0408B
:10029000F040E1F700C0000012BA809166009FEFC5
:1002A000980F933030F0853021F08750823008F07D
:1002B0004AC080916D008F5F80936D0080916E00C9
:1002C000863008F040C08D2F9C2F25BBBFE8EFE59E
:1002D000F1E0B150E040F040E1F700C0000015BA95
:1002E000BFE5EEEAFAE0B150E040F040E1F700C0CF
:1002F0000000E0916000E13019F5E6B3E170E6BB83
:10030000EE23F1F0ABBBBFE3EDE0F3E0B150E04032
:10031000F040E1F700C000001BBAE0916E00EF5F13
:10032000E0936E00B0916300EB2FF0E0E959FF4FCE
:1003300010916D001083BF5FB09363001092600056
:100340000197009711F6809166008430D1F5872FD0
:10035000962F55BBBFE9E7EFF3E0B150E040F04026
:10036000E1F700C0000015BABFEBE7E2F9E0B150D9
:10037000E040F040E1F700C000000197009749F726
:1003800015BA8FE79AE1B6E081509040B040E1F7AE
:1003900000C0000045BBEFE1F6ED83E1E150F04025
:1003A0008040E1F700C0000015BA9FE7BAE1E6E03F
:1003B0009150B040E040E1F700C0000010926000B2
:1003C0003BC08630C9F5872F962F55BBFFE9B7EFA5
:1003D000E3E0F150B040E040E1F700C0000015BAA2
:1003E000FFEBB7E2E9E0F150B040E040E1F700C0D8
:1003F00000000197009749F715BAFFE78AE196E0F8
:10040000F15080409040E1F700C0000045BBBFE7DD
:10041000E0ECF4E1B150E040F040E1F700C0000052
:1004200015BA8FE79AE1B6E081509040B040E1F70D
:1004300000C000001092600080916400813009F0DB
:10044000B4CECFE30E94570080916E00811102C0AC
:10045000CBBBF8CF0E947A00F5CFEE0FFF1F0590BF
:0A046000F491E02D0994F894FFCF09
:02046A0001008F
:00000001FF
